{
  "contractName": "Exchange",
  "abi": [
    {
      "constant": true,
      "inputs": [],
      "name": "orderCount",
      "outputs": [
        {
          "name": "",
          "type": "uint256"
        }
      ],
      "payable": false,
      "stateMutability": "view",
      "type": "function",
      "signature": "0x2453ffa8"
    },
    {
      "constant": false,
      "inputs": [],
      "name": "unpause",
      "outputs": [],
      "payable": false,
      "stateMutability": "nonpayable",
      "type": "function",
      "signature": "0x3f4ba83a"
    },
    {
      "constant": true,
      "inputs": [
        {
          "name": "account",
          "type": "address"
        }
      ],
      "name": "isPauser",
      "outputs": [
        {
          "name": "",
          "type": "bool"
        }
      ],
      "payable": false,
      "stateMutability": "view",
      "type": "function",
      "signature": "0x46fbf68e"
    },
    {
      "constant": true,
      "inputs": [
        {
          "name": "",
          "type": "uint256"
        }
      ],
      "name": "orderFilled",
      "outputs": [
        {
          "name": "",
          "type": "bool"
        }
      ],
      "payable": false,
      "stateMutability": "view",
      "type": "function",
      "signature": "0x4a93e0da"
    },
    {
      "constant": true,
      "inputs": [
        {
          "name": "",
          "type": "address"
        },
        {
          "name": "",
          "type": "address"
        }
      ],
      "name": "tokens",
      "outputs": [
        {
          "name": "",
          "type": "uint256"
        }
      ],
      "payable": false,
      "stateMutability": "view",
      "type": "function",
      "signature": "0x508493bc"
    },
    {
      "constant": true,
      "inputs": [],
      "name": "paused",
      "outputs": [
        {
          "name": "",
          "type": "bool"
        }
      ],
      "payable": false,
      "stateMutability": "view",
      "type": "function",
      "signature": "0x5c975abb"
    },
    {
      "constant": true,
      "inputs": [],
      "name": "feeAccount",
      "outputs": [
        {
          "name": "",
          "type": "address"
        }
      ],
      "payable": false,
      "stateMutability": "view",
      "type": "function",
      "signature": "0x65e17c9d"
    },
    {
      "constant": false,
      "inputs": [],
      "name": "renouncePauser",
      "outputs": [],
      "payable": false,
      "stateMutability": "nonpayable",
      "type": "function",
      "signature": "0x6ef8d66d"
    },
    {
      "constant": true,
      "inputs": [],
      "name": "feePercent",
      "outputs": [
        {
          "name": "",
          "type": "uint256"
        }
      ],
      "payable": false,
      "stateMutability": "view",
      "type": "function",
      "signature": "0x7fd6f15c"
    },
    {
      "constant": false,
      "inputs": [
        {
          "name": "account",
          "type": "address"
        }
      ],
      "name": "addPauser",
      "outputs": [],
      "payable": false,
      "stateMutability": "nonpayable",
      "type": "function",
      "signature": "0x82dc1ec4"
    },
    {
      "constant": false,
      "inputs": [],
      "name": "pause",
      "outputs": [],
      "payable": false,
      "stateMutability": "nonpayable",
      "type": "function",
      "signature": "0x8456cb59"
    },
    {
      "constant": true,
      "inputs": [
        {
          "name": "",
          "type": "uint256"
        }
      ],
      "name": "orders",
      "outputs": [
        {
          "name": "id",
          "type": "uint256"
        },
        {
          "name": "user",
          "type": "address"
        },
        {
          "name": "tokenGet",
          "type": "address"
        },
        {
          "name": "amountGet",
          "type": "uint256"
        },
        {
          "name": "tokenGive",
          "type": "address"
        },
        {
          "name": "amountGive",
          "type": "uint256"
        },
        {
          "name": "timestamp",
          "type": "uint256"
        }
      ],
      "payable": false,
      "stateMutability": "view",
      "type": "function",
      "signature": "0xa85c38ef"
    },
    {
      "constant": true,
      "inputs": [
        {
          "name": "",
          "type": "uint256"
        }
      ],
      "name": "orderCancelled",
      "outputs": [
        {
          "name": "",
          "type": "bool"
        }
      ],
      "payable": false,
      "stateMutability": "view",
      "type": "function",
      "signature": "0xe9c18966"
    },
    {
      "inputs": [
        {
          "name": "_feeAccount",
          "type": "address"
        },
        {
          "name": "_feePercent",
          "type": "uint256"
        }
      ],
      "payable": false,
      "stateMutability": "nonpayable",
      "type": "constructor",
      "signature": "constructor"
    },
    {
      "payable": false,
      "stateMutability": "nonpayable",
      "type": "fallback"
    },
    {
      "anonymous": false,
      "inputs": [
        {
          "indexed": false,
          "name": "token",
          "type": "address"
        },
        {
          "indexed": false,
          "name": "user",
          "type": "address"
        },
        {
          "indexed": false,
          "name": "amount",
          "type": "uint256"
        },
        {
          "indexed": false,
          "name": "balance",
          "type": "uint256"
        }
      ],
      "name": "Deposit",
      "type": "event",
      "signature": "0xdcbc1c05240f31ff3ad067ef1ee35ce4997762752e3a095284754544f4c709d7"
    },
    {
      "anonymous": false,
      "inputs": [
        {
          "indexed": false,
          "name": "token",
          "type": "address"
        },
        {
          "indexed": false,
          "name": "user",
          "type": "address"
        },
        {
          "indexed": false,
          "name": "amount",
          "type": "uint256"
        },
        {
          "indexed": false,
          "name": "balance",
          "type": "uint256"
        }
      ],
      "name": "Withdraw",
      "type": "event",
      "signature": "0xf341246adaac6f497bc2a656f546ab9e182111d630394f0c57c710a59a2cb567"
    },
    {
      "anonymous": false,
      "inputs": [
        {
          "indexed": false,
          "name": "id",
          "type": "uint256"
        },
        {
          "indexed": false,
          "name": "user",
          "type": "address"
        },
        {
          "indexed": false,
          "name": "tokenGet",
          "type": "address"
        },
        {
          "indexed": false,
          "name": "amountGet",
          "type": "uint256"
        },
        {
          "indexed": false,
          "name": "tokenGive",
          "type": "address"
        },
        {
          "indexed": false,
          "name": "amountGive",
          "type": "uint256"
        },
        {
          "indexed": false,
          "name": "timestamp",
          "type": "uint256"
        }
      ],
      "name": "Order",
      "type": "event",
      "signature": "0x9d33853d43e3607b4cc01fdc78338ff2dca6fef7db9232dae6d3eb55fbc3b109"
    },
    {
      "anonymous": false,
      "inputs": [
        {
          "indexed": false,
          "name": "id",
          "type": "uint256"
        },
        {
          "indexed": false,
          "name": "user",
          "type": "address"
        },
        {
          "indexed": false,
          "name": "tokenGet",
          "type": "address"
        },
        {
          "indexed": false,
          "name": "amountGet",
          "type": "uint256"
        },
        {
          "indexed": false,
          "name": "tokenGive",
          "type": "address"
        },
        {
          "indexed": false,
          "name": "amountGive",
          "type": "uint256"
        },
        {
          "indexed": false,
          "name": "timestamp",
          "type": "uint256"
        }
      ],
      "name": "Cancel",
      "type": "event",
      "signature": "0x77de1da0be5f2d3b110d05c6694e5c4ff2d9da7cd23d84353ecf78c7b5acec61"
    },
    {
      "anonymous": false,
      "inputs": [
        {
          "indexed": false,
          "name": "id",
          "type": "uint256"
        },
        {
          "indexed": false,
          "name": "user",
          "type": "address"
        },
        {
          "indexed": false,
          "name": "tokenGet",
          "type": "address"
        },
        {
          "indexed": false,
          "name": "amountGet",
          "type": "uint256"
        },
        {
          "indexed": false,
          "name": "tokenGive",
          "type": "address"
        },
        {
          "indexed": false,
          "name": "amountGive",
          "type": "uint256"
        },
        {
          "indexed": false,
          "name": "userFill",
          "type": "address"
        },
        {
          "indexed": false,
          "name": "timestamp",
          "type": "uint256"
        }
      ],
      "name": "Trade",
      "type": "event",
      "signature": "0x0dddf4182dc0fc1a311cb75f049c97403c6b8a99cf6b2229a36e7c526acb3f81"
    },
    {
      "anonymous": false,
      "inputs": [
        {
          "indexed": false,
          "name": "account",
          "type": "address"
        }
      ],
      "name": "Paused",
      "type": "event",
      "signature": "0x62e78cea01bee320cd4e420270b5ea74000d11b0c9f74754ebdbfc544b05a258"
    },
    {
      "anonymous": false,
      "inputs": [
        {
          "indexed": false,
          "name": "account",
          "type": "address"
        }
      ],
      "name": "Unpaused",
      "type": "event",
      "signature": "0x5db9ee0a495bf2e6ff9c91a7834c1ba4fdd244a5e8aa4e537bd38aeae4b073aa"
    },
    {
      "anonymous": false,
      "inputs": [
        {
          "indexed": true,
          "name": "account",
          "type": "address"
        }
      ],
      "name": "PauserAdded",
      "type": "event",
      "signature": "0x6719d08c1888103bea251a4ed56406bd0c3e69723c8a1686e017e7bbe159b6f8"
    },
    {
      "anonymous": false,
      "inputs": [
        {
          "indexed": true,
          "name": "account",
          "type": "address"
        }
      ],
      "name": "PauserRemoved",
      "type": "event",
      "signature": "0xcd265ebaf09df2871cc7bd4133404a235ba12eff2041bb89d9c714a2621c7c7e"
    },
    {
      "constant": false,
      "inputs": [],
      "name": "depositEther",
      "outputs": [],
      "payable": true,
      "stateMutability": "payable",
      "type": "function",
      "signature": "0x98ea5fca"
    },
    {
      "constant": false,
      "inputs": [
        {
          "name": "_amount",
          "type": "uint256"
        }
      ],
      "name": "withdrawEther",
      "outputs": [],
      "payable": false,
      "stateMutability": "nonpayable",
      "type": "function",
      "signature": "0x3bed33ce"
    },
    {
      "constant": false,
      "inputs": [
        {
          "name": "_token",
          "type": "address"
        },
        {
          "name": "_amount",
          "type": "uint256"
        }
      ],
      "name": "depositToken",
      "outputs": [],
      "payable": false,
      "stateMutability": "nonpayable",
      "type": "function",
      "signature": "0x338b5dea"
    },
    {
      "constant": false,
      "inputs": [
        {
          "name": "_token",
          "type": "address"
        },
        {
          "name": "_amount",
          "type": "uint256"
        }
      ],
      "name": "withdrawToken",
      "outputs": [],
      "payable": false,
      "stateMutability": "nonpayable",
      "type": "function",
      "signature": "0x9e281a98"
    },
    {
      "constant": true,
      "inputs": [
        {
          "name": "_token",
          "type": "address"
        },
        {
          "name": "_user",
          "type": "address"
        }
      ],
      "name": "balanceOf",
      "outputs": [
        {
          "name": "",
          "type": "uint256"
        }
      ],
      "payable": false,
      "stateMutability": "view",
      "type": "function",
      "signature": "0xf7888aec"
    },
    {
      "constant": false,
      "inputs": [
        {
          "name": "_tokenGet",
          "type": "address"
        },
        {
          "name": "_amountGet",
          "type": "uint256"
        },
        {
          "name": "_tokenGive",
          "type": "address"
        },
        {
          "name": "_amountGive",
          "type": "uint256"
        }
      ],
      "name": "makeOrder",
      "outputs": [],
      "payable": false,
      "stateMutability": "nonpayable",
      "type": "function",
      "signature": "0x9a5c90aa"
    },
    {
      "constant": false,
      "inputs": [
        {
          "name": "_id",
          "type": "uint256"
        }
      ],
      "name": "cancelOrder",
      "outputs": [],
      "payable": false,
      "stateMutability": "nonpayable",
      "type": "function",
      "signature": "0x514fcac7"
    },
    {
      "constant": false,
      "inputs": [
        {
          "name": "_id",
          "type": "uint256"
        }
      ],
      "name": "fillOrder",
      "outputs": [],
      "payable": false,
      "stateMutability": "nonpayable",
      "type": "function",
      "signature": "0x67b830ad"
    }
  ],
  "bytecode": "0x60806040523480156200001157600080fd5b5060405160408062002baa833981018060405260408110156200003357600080fd5b8101908080519060200190929190805190602001909291905050506200006833620000d2640100000000026401000000009004565b6000600160006101000a81548160ff021916908315150217905550816001806101000a81548173ffffffffffffffffffffffffffffffffffffffff021916908373ffffffffffffffffffffffffffffffffffffffff16021790555080600281905550505062000294565b620000f68160006200013c640100000000026200282a179091906401000000009004565b8073ffffffffffffffffffffffffffffffffffffffff167f6719d08c1888103bea251a4ed56406bd0c3e69723c8a1686e017e7bbe159b6f860405160405180910390a250565b600073ffffffffffffffffffffffffffffffffffffffff168173ffffffffffffffffffffffffffffffffffffffff16141515156200017957600080fd5b620001948282620001ff640100000000026401000000009004565b151515620001a157600080fd5b60018260000160008373ffffffffffffffffffffffffffffffffffffffff1673ffffffffffffffffffffffffffffffffffffffff16815260200190815260200160002060006101000a81548160ff0219169083151502179055505050565b60008073ffffffffffffffffffffffffffffffffffffffff168273ffffffffffffffffffffffffffffffffffffffff16141515156200023d57600080fd5b8260000160008373ffffffffffffffffffffffffffffffffffffffff1673ffffffffffffffffffffffffffffffffffffffff16815260200190815260200160002060009054906101000a900460ff16905092915050565b61290680620002a46000396000f3fe60806040526004361061011d576000357c0100000000000000000000000000000000000000000000000000000000900463ffffffff1680632453ffa81461012f578063338b5dea1461015a5780633bed33ce146101b55780633f4ba83a146101f057806346fbf68e146102075780634a93e0da14610270578063508493bc146102c3578063514fcac7146103485780635c975abb1461038357806365e17c9d146103b257806367b830ad146104095780636ef8d66d146104445780637fd6f15c1461045b57806382dc1ec4146104865780638456cb59146104d757806398ea5fca146104ee5780639a5c90aa146104f85780639e281a981461057d578063a85c38ef146105d8578063e9c18966146106d5578063f7888aec14610728575b34801561012957600080fd5b50600080fd5b34801561013b57600080fd5b506101446107ad565b6040518082815260200191505060405180910390f35b34801561016657600080fd5b506101b36004803603604081101561017d57600080fd5b81019080803573ffffffffffffffffffffffffffffffffffffffff169060200190929190803590602001909291905050506107b3565b005b3480156101c157600080fd5b506101ee600480360360208110156101d857600080fd5b8101908080359060200190929190505050610b5e565b005b3480156101fc57600080fd5b50610205610e82565b005b34801561021357600080fd5b506102566004803603602081101561022a57600080fd5b81019080803573ffffffffffffffffffffffffffffffffffffffff169060200190929190505050610f31565b604051808215151515815260200191505060405180910390f35b34801561027c57600080fd5b506102a96004803603602081101561029357600080fd5b8101908080359060200190929190505050610f4e565b604051808215151515815260200191505060405180910390f35b3480156102cf57600080fd5b50610332600480360360408110156102e657600080fd5b81019080803573ffffffffffffffffffffffffffffffffffffffff169060200190929190803573ffffffffffffffffffffffffffffffffffffffff169060200190929190505050610f6e565b6040518082815260200191505060405180910390f35b34801561035457600080fd5b506103816004803603602081101561036b57600080fd5b8101908080359060200190929190505050610f93565b005b34801561038f57600080fd5b506103986111a5565b604051808215151515815260200191505060405180910390f35b3480156103be57600080fd5b506103c76111bc565b604051808273ffffffffffffffffffffffffffffffffffffffff1673ffffffffffffffffffffffffffffffffffffffff16815260200191505060405180910390f35b34801561041557600080fd5b506104426004803603602081101561042c57600080fd5b81019080803590602001909291905050506111e1565b005b34801561045057600080fd5b50610459611345565b005b34801561046757600080fd5b50610470611350565b6040518082815260200191505060405180910390f35b34801561049257600080fd5b506104d5600480360360208110156104a957600080fd5b81019080803573ffffffffffffffffffffffffffffffffffffffff169060200190929190505050611356565b005b3480156104e357600080fd5b506104ec611376565b005b6104f6611425565b005b34801561050457600080fd5b5061057b6004803603608081101561051b57600080fd5b81019080803573ffffffffffffffffffffffffffffffffffffffff16906020019092919080359060200190929190803573ffffffffffffffffffffffffffffffffffffffff16906020019092919080359060200190929190505050611676565b005b34801561058957600080fd5b506105d6600480360360408110156105a057600080fd5b81019080803573ffffffffffffffffffffffffffffffffffffffff1690602001909291908035906020019092919050505061192e565b005b3480156105e457600080fd5b50610611600480360360208110156105fb57600080fd5b8101908080359060200190929190505050611d30565b604051808881526020018773ffffffffffffffffffffffffffffffffffffffff1673ffffffffffffffffffffffffffffffffffffffff1681526020018673ffffffffffffffffffffffffffffffffffffffff1673ffffffffffffffffffffffffffffffffffffffff1681526020018581526020018473ffffffffffffffffffffffffffffffffffffffff1673ffffffffffffffffffffffffffffffffffffffff16815260200183815260200182815260200197505050505050505060405180910390f35b3480156106e157600080fd5b5061070e600480360360208110156106f857600080fd5b8101908080359060200190929190505050611dd2565b604051808215151515815260200191505060405180910390f35b34801561073457600080fd5b506107976004803603604081101561074b57600080fd5b81019080803573ffffffffffffffffffffffffffffffffffffffff169060200190929190803573ffffffffffffffffffffffffffffffffffffffff169060200190929190505050611df2565b6040518082815260200191505060405180910390f35b60055481565b600160009054906101000a900460ff161515156107cf57600080fd5b600073ffffffffffffffffffffffffffffffffffffffff168273ffffffffffffffffffffffffffffffffffffffff161415151561080b57600080fd5b8173ffffffffffffffffffffffffffffffffffffffff166323b872dd3330846040518463ffffffff167c0100000000000000000000000000000000000000000000000000000000028152600401808473ffffffffffffffffffffffffffffffffffffffff1673ffffffffffffffffffffffffffffffffffffffff1681526020018373ffffffffffffffffffffffffffffffffffffffff1673ffffffffffffffffffffffffffffffffffffffff1681526020018281526020019350505050602060405180830381600087803b1580156108e257600080fd5b505af11580156108f6573d6000803e3d6000fd5b505050506040513d602081101561090c57600080fd5b8101908080519060200190929190505050151561092857600080fd5b6109b781600360008573ffffffffffffffffffffffffffffffffffffffff1673ffffffffffffffffffffffffffffffffffffffff16815260200190815260200160002060003373ffffffffffffffffffffffffffffffffffffffff1673ffffffffffffffffffffffffffffffffffffffff16815260200190815260200160002054611e7990919063ffffffff16565b600360008473ffffffffffffffffffffffffffffffffffffffff1673ffffffffffffffffffffffffffffffffffffffff16815260200190815260200160002060003373ffffffffffffffffffffffffffffffffffffffff1673ffffffffffffffffffffffffffffffffffffffff168152602001908152602001600020819055507fdcbc1c05240f31ff3ad067ef1ee35ce4997762752e3a095284754544f4c709d7823383600360008773ffffffffffffffffffffffffffffffffffffffff1673ffffffffffffffffffffffffffffffffffffffff16815260200190815260200160002060003373ffffffffffffffffffffffffffffffffffffffff1673ffffffffffffffffffffffffffffffffffffffff16815260200190815260200160002054604051808573ffffffffffffffffffffffffffffffffffffffff1673ffffffffffffffffffffffffffffffffffffffff1681526020018473ffffffffffffffffffffffffffffffffffffffff1673ffffffffffffffffffffffffffffffffffffffff16815260200183815260200182815260200194505050505060405180910390a15050565b600160009054906101000a900460ff16151515610b7a57600080fd5b80600360008073ffffffffffffffffffffffffffffffffffffffff1673ffffffffffffffffffffffffffffffffffffffff16815260200190815260200160002060003373ffffffffffffffffffffffffffffffffffffffff1673ffffffffffffffffffffffffffffffffffffffff1681526020019081526020016000205410151515610c0557600080fd5b610c9481600360008073ffffffffffffffffffffffffffffffffffffffff1673ffffffffffffffffffffffffffffffffffffffff16815260200190815260200160002060003373ffffffffffffffffffffffffffffffffffffffff1673ffffffffffffffffffffffffffffffffffffffff16815260200190815260200160002054611e9a90919063ffffffff16565b600360008073ffffffffffffffffffffffffffffffffffffffff1673ffffffffffffffffffffffffffffffffffffffff16815260200190815260200160002060003373ffffffffffffffffffffffffffffffffffffffff1673ffffffffffffffffffffffffffffffffffffffff168152602001908152602001600020819055503373ffffffffffffffffffffffffffffffffffffffff166108fc829081150290604051600060405180830381858888f19350505050158015610d5a573d6000803e3d6000fd5b507ff341246adaac6f497bc2a656f546ab9e182111d630394f0c57c710a59a2cb56760003383600360008073ffffffffffffffffffffffffffffffffffffffff1673ffffffffffffffffffffffffffffffffffffffff16815260200190815260200160002060003373ffffffffffffffffffffffffffffffffffffffff1673ffffffffffffffffffffffffffffffffffffffff16815260200190815260200160002054604051808573ffffffffffffffffffffffffffffffffffffffff1673ffffffffffffffffffffffffffffffffffffffff1681526020018473ffffffffffffffffffffffffffffffffffffffff1673ffffffffffffffffffffffffffffffffffffffff16815260200183815260200182815260200194505050505060405180910390a150565b610e8b33610f31565b1515610e9657600080fd5b600160009054906101000a900460ff161515610eb157600080fd5b6000600160006101000a81548160ff0219169083151502179055507f5db9ee0a495bf2e6ff9c91a7834c1ba4fdd244a5e8aa4e537bd38aeae4b073aa33604051808273ffffffffffffffffffffffffffffffffffffffff1673ffffffffffffffffffffffffffffffffffffffff16815260200191505060405180910390a1565b6000610f47826000611ebc90919063ffffffff16565b9050919050565b60076020528060005260406000206000915054906101000a900460ff1681565b6003602052816000526040600020602052806000526040600020600091509150505481565b600160009054906101000a900460ff16151515610faf57600080fd5b60006004600083815260200190815260200160002090503373ffffffffffffffffffffffffffffffffffffffff168160010160009054906101000a900473ffffffffffffffffffffffffffffffffffffffff1673ffffffffffffffffffffffffffffffffffffffff1614151561102457600080fd5b81816000015414151561103657600080fd5b60016006600084815260200190815260200160002060006101000a81548160ff0219169083151502179055507f77de1da0be5f2d3b110d05c6694e5c4ff2d9da7cd23d84353ecf78c7b5acec618160000154338360020160009054906101000a900473ffffffffffffffffffffffffffffffffffffffff1684600301548560040160009054906101000a900473ffffffffffffffffffffffffffffffffffffffff16866005015442604051808881526020018773ffffffffffffffffffffffffffffffffffffffff1673ffffffffffffffffffffffffffffffffffffffff1681526020018673ffffffffffffffffffffffffffffffffffffffff1673ffffffffffffffffffffffffffffffffffffffff1681526020018581526020018473ffffffffffffffffffffffffffffffffffffffff1673ffffffffffffffffffffffffffffffffffffffff16815260200183815260200182815260200197505050505050505060405180910390a15050565b6000600160009054906101000a900460ff16905090565b6001809054906101000a900473ffffffffffffffffffffffffffffffffffffffff1681565b600160009054906101000a900460ff161515156111fd57600080fd5b60008111801561120f57506005548111155b151561121a57600080fd5b6007600082815260200190815260200160002060009054906101000a900460ff1615151561124757600080fd5b6006600082815260200190815260200160002060009054906101000a900460ff1615151561127457600080fd5b600060046000838152602001908152602001600020905061131181600001548260010160009054906101000a900473ffffffffffffffffffffffffffffffffffffffff168360020160009054906101000a900473ffffffffffffffffffffffffffffffffffffffff1684600301548560040160009054906101000a900473ffffffffffffffffffffffffffffffffffffffff168660050154611f50565b6001600760008360000154815260200190815260200160002060006101000a81548160ff0219169083151502179055505050565b61134e3361265f565b565b60025481565b61135f33610f31565b151561136a57600080fd5b611373816126b9565b50565b61137f33610f31565b151561138a57600080fd5b600160009054906101000a900460ff161515156113a657600080fd5b60018060006101000a81548160ff0219169083151502179055507f62e78cea01bee320cd4e420270b5ea74000d11b0c9f74754ebdbfc544b05a25833604051808273ffffffffffffffffffffffffffffffffffffffff1673ffffffffffffffffffffffffffffffffffffffff16815260200191505060405180910390a1565b600160009054906101000a900460ff1615151561144157600080fd5b6114d034600360008073ffffffffffffffffffffffffffffffffffffffff1673ffffffffffffffffffffffffffffffffffffffff16815260200190815260200160002060003373ffffffffffffffffffffffffffffffffffffffff1673ffffffffffffffffffffffffffffffffffffffff16815260200190815260200160002054611e7990919063ffffffff16565b600360008073ffffffffffffffffffffffffffffffffffffffff1673ffffffffffffffffffffffffffffffffffffffff16815260200190815260200160002060003373ffffffffffffffffffffffffffffffffffffffff1673ffffffffffffffffffffffffffffffffffffffff168152602001908152602001600020819055507fdcbc1c05240f31ff3ad067ef1ee35ce4997762752e3a095284754544f4c709d760003334600360008073ffffffffffffffffffffffffffffffffffffffff1673ffffffffffffffffffffffffffffffffffffffff16815260200190815260200160002060003373ffffffffffffffffffffffffffffffffffffffff1673ffffffffffffffffffffffffffffffffffffffff16815260200190815260200160002054604051808573ffffffffffffffffffffffffffffffffffffffff1673ffffffffffffffffffffffffffffffffffffffff1681526020018473ffffffffffffffffffffffffffffffffffffffff1673ffffffffffffffffffffffffffffffffffffffff16815260200183815260200182815260200194505050505060405180910390a1565b600160009054906101000a900460ff1615151561169257600080fd5b6116a86001600554611e7990919063ffffffff16565b60058190555060e06040519081016040528060055481526020013373ffffffffffffffffffffffffffffffffffffffff1681526020018573ffffffffffffffffffffffffffffffffffffffff1681526020018481526020018373ffffffffffffffffffffffffffffffffffffffff168152602001828152602001428152506004600060055481526020019081526020016000206000820151816000015560208201518160010160006101000a81548173ffffffffffffffffffffffffffffffffffffffff021916908373ffffffffffffffffffffffffffffffffffffffff16021790555060408201518160020160006101000a81548173ffffffffffffffffffffffffffffffffffffffff021916908373ffffffffffffffffffffffffffffffffffffffff1602179055506060820151816003015560808201518160040160006101000a81548173ffffffffffffffffffffffffffffffffffffffff021916908373ffffffffffffffffffffffffffffffffffffffff16021790555060a0820151816005015560c082015181600601559050507f9d33853d43e3607b4cc01fdc78338ff2dca6fef7db9232dae6d3eb55fbc3b109600554338686868642604051808881526020018773ffffffffffffffffffffffffffffffffffffffff1673ffffffffffffffffffffffffffffffffffffffff1681526020018673ffffffffffffffffffffffffffffffffffffffff1673ffffffffffffffffffffffffffffffffffffffff1681526020018581526020018473ffffffffffffffffffffffffffffffffffffffff1673ffffffffffffffffffffffffffffffffffffffff16815260200183815260200182815260200197505050505050505060405180910390a150505050565b600160009054906101000a900460ff1615151561194a57600080fd5b600073ffffffffffffffffffffffffffffffffffffffff168273ffffffffffffffffffffffffffffffffffffffff161415151561198657600080fd5b80600360008473ffffffffffffffffffffffffffffffffffffffff1673ffffffffffffffffffffffffffffffffffffffff16815260200190815260200160002060003373ffffffffffffffffffffffffffffffffffffffff1673ffffffffffffffffffffffffffffffffffffffff1681526020019081526020016000205410151515611a1157600080fd5b611aa081600360008573ffffffffffffffffffffffffffffffffffffffff1673ffffffffffffffffffffffffffffffffffffffff16815260200190815260200160002060003373ffffffffffffffffffffffffffffffffffffffff1673ffffffffffffffffffffffffffffffffffffffff16815260200190815260200160002054611e9a90919063ffffffff16565b600360008473ffffffffffffffffffffffffffffffffffffffff1673ffffffffffffffffffffffffffffffffffffffff16815260200190815260200160002060003373ffffffffffffffffffffffffffffffffffffffff1673ffffffffffffffffffffffffffffffffffffffff168152602001908152602001600020819055508173ffffffffffffffffffffffffffffffffffffffff1663a9059cbb33836040518363ffffffff167c0100000000000000000000000000000000000000000000000000000000028152600401808373ffffffffffffffffffffffffffffffffffffffff1673ffffffffffffffffffffffffffffffffffffffff16815260200182815260200192505050602060405180830381600087803b158015611bc357600080fd5b505af1158015611bd7573d6000803e3d6000fd5b505050506040513d6020811015611bed57600080fd5b81019080805190602001909291905050501515611c0957600080fd5b7ff341246adaac6f497bc2a656f546ab9e182111d630394f0c57c710a59a2cb567823383600360008773ffffffffffffffffffffffffffffffffffffffff1673ffffffffffffffffffffffffffffffffffffffff16815260200190815260200160002060003373ffffffffffffffffffffffffffffffffffffffff1673ffffffffffffffffffffffffffffffffffffffff16815260200190815260200160002054604051808573ffffffffffffffffffffffffffffffffffffffff1673ffffffffffffffffffffffffffffffffffffffff1681526020018473ffffffffffffffffffffffffffffffffffffffff1673ffffffffffffffffffffffffffffffffffffffff16815260200183815260200182815260200194505050505060405180910390a15050565b60046020528060005260406000206000915090508060000154908060010160009054906101000a900473ffffffffffffffffffffffffffffffffffffffff16908060020160009054906101000a900473ffffffffffffffffffffffffffffffffffffffff16908060030154908060040160009054906101000a900473ffffffffffffffffffffffffffffffffffffffff16908060050154908060060154905087565b60066020528060005260406000206000915054906101000a900460ff1681565b6000600360008473ffffffffffffffffffffffffffffffffffffffff1673ffffffffffffffffffffffffffffffffffffffff16815260200190815260200160002060008373ffffffffffffffffffffffffffffffffffffffff1673ffffffffffffffffffffffffffffffffffffffff16815260200190815260200160002054905092915050565b6000808284019050838110151515611e9057600080fd5b8091505092915050565b6000828211151515611eab57600080fd5b600082840390508091505092915050565b60008073ffffffffffffffffffffffffffffffffffffffff168273ffffffffffffffffffffffffffffffffffffffff1614151515611ef957600080fd5b8260000160008373ffffffffffffffffffffffffffffffffffffffff1673ffffffffffffffffffffffffffffffffffffffff16815260200190815260200160002060009054906101000a900460ff16905092915050565b600160009054906101000a900460ff16151515611f6c57600080fd5b6000611f966064611f886002548761271390919063ffffffff16565b61275190919063ffffffff16565b9050612039611fae8286611e7990919063ffffffff16565b600360008873ffffffffffffffffffffffffffffffffffffffff1673ffffffffffffffffffffffffffffffffffffffff16815260200190815260200160002060003373ffffffffffffffffffffffffffffffffffffffff1673ffffffffffffffffffffffffffffffffffffffff16815260200190815260200160002054611e9a90919063ffffffff16565b600360008773ffffffffffffffffffffffffffffffffffffffff1673ffffffffffffffffffffffffffffffffffffffff16815260200190815260200160002060003373ffffffffffffffffffffffffffffffffffffffff1673ffffffffffffffffffffffffffffffffffffffff1681526020019081526020016000208190555061214884600360008873ffffffffffffffffffffffffffffffffffffffff1673ffffffffffffffffffffffffffffffffffffffff16815260200190815260200160002060008973ffffffffffffffffffffffffffffffffffffffff1673ffffffffffffffffffffffffffffffffffffffff16815260200190815260200160002054611e7990919063ffffffff16565b600360008773ffffffffffffffffffffffffffffffffffffffff1673ffffffffffffffffffffffffffffffffffffffff16815260200190815260200160002060008873ffffffffffffffffffffffffffffffffffffffff1673ffffffffffffffffffffffffffffffffffffffff1681526020019081526020016000208190555061227881600360008873ffffffffffffffffffffffffffffffffffffffff1673ffffffffffffffffffffffffffffffffffffffff16815260200190815260200160002060006001809054906101000a900473ffffffffffffffffffffffffffffffffffffffff1673ffffffffffffffffffffffffffffffffffffffff1673ffffffffffffffffffffffffffffffffffffffff16815260200190815260200160002054611e7990919063ffffffff16565b600360008773ffffffffffffffffffffffffffffffffffffffff1673ffffffffffffffffffffffffffffffffffffffff16815260200190815260200160002060006001809054906101000a900473ffffffffffffffffffffffffffffffffffffffff1673ffffffffffffffffffffffffffffffffffffffff1673ffffffffffffffffffffffffffffffffffffffff168152602001908152602001600020819055506123a882600360008673ffffffffffffffffffffffffffffffffffffffff1673ffffffffffffffffffffffffffffffffffffffff16815260200190815260200160002060008973ffffffffffffffffffffffffffffffffffffffff1673ffffffffffffffffffffffffffffffffffffffff16815260200190815260200160002054611e9a90919063ffffffff16565b600360008573ffffffffffffffffffffffffffffffffffffffff1673ffffffffffffffffffffffffffffffffffffffff16815260200190815260200160002060008873ffffffffffffffffffffffffffffffffffffffff1673ffffffffffffffffffffffffffffffffffffffff168152602001908152602001600020819055506124b782600360008673ffffffffffffffffffffffffffffffffffffffff1673ffffffffffffffffffffffffffffffffffffffff16815260200190815260200160002060003373ffffffffffffffffffffffffffffffffffffffff1673ffffffffffffffffffffffffffffffffffffffff16815260200190815260200160002054611e7990919063ffffffff16565b600360008573ffffffffffffffffffffffffffffffffffffffff1673ffffffffffffffffffffffffffffffffffffffff16815260200190815260200160002060003373ffffffffffffffffffffffffffffffffffffffff1673ffffffffffffffffffffffffffffffffffffffff168152602001908152602001600020819055507f0dddf4182dc0fc1a311cb75f049c97403c6b8a99cf6b2229a36e7c526acb3f818787878787873342604051808981526020018873ffffffffffffffffffffffffffffffffffffffff1673ffffffffffffffffffffffffffffffffffffffff1681526020018773ffffffffffffffffffffffffffffffffffffffff1673ffffffffffffffffffffffffffffffffffffffff1681526020018681526020018573ffffffffffffffffffffffffffffffffffffffff1673ffffffffffffffffffffffffffffffffffffffff1681526020018481526020018373ffffffffffffffffffffffffffffffffffffffff1673ffffffffffffffffffffffffffffffffffffffff1681526020018281526020019850505050505050505060405180910390a150505050505050565b61267381600061277b90919063ffffffff16565b8073ffffffffffffffffffffffffffffffffffffffff167fcd265ebaf09df2871cc7bd4133404a235ba12eff2041bb89d9c714a2621c7c7e60405160405180910390a250565b6126cd81600061282a90919063ffffffff16565b8073ffffffffffffffffffffffffffffffffffffffff167f6719d08c1888103bea251a4ed56406bd0c3e69723c8a1686e017e7bbe159b6f860405160405180910390a250565b600080831415612726576000905061274b565b6000828402905082848281151561273957fe5b0414151561274657600080fd5b809150505b92915050565b6000808211151561276157600080fd5b6000828481151561276e57fe5b0490508091505092915050565b600073ffffffffffffffffffffffffffffffffffffffff168173ffffffffffffffffffffffffffffffffffffffff16141515156127b757600080fd5b6127c18282611ebc565b15156127cc57600080fd5b60008260000160008373ffffffffffffffffffffffffffffffffffffffff1673ffffffffffffffffffffffffffffffffffffffff16815260200190815260200160002060006101000a81548160ff0219169083151502179055505050565b600073ffffffffffffffffffffffffffffffffffffffff168173ffffffffffffffffffffffffffffffffffffffff161415151561286657600080fd5b6128708282611ebc565b15151561287c57600080fd5b60018260000160008373ffffffffffffffffffffffffffffffffffffffff1673ffffffffffffffffffffffffffffffffffffffff16815260200190815260200160002060006101000a81548160ff021916908315150217905550505056fea165627a7a72305820391480f469ab05bd7fc617e67d3c08c5a99e5b5c1e50559e3b348f9dcb08b78c0029",
  "source": "pragma solidity ^0.5.0;\n\nimport \"./Token.sol\";\nimport \"openzeppelin-solidity/contracts/math/SafeMath.sol\";\nimport \"openzeppelin-solidity/contracts/lifecycle/Pausable.sol\";\n\ncontract Exchange is Pausable {\n    using SafeMath for uint;\n    // Variables\n    address public feeAccount; // the account that receives exchange fees\n    uint256 public feePercent; // the fee percentage\n    address constant ETHER = address(0); // store Ether in tokens mapping with blank address\n    mapping(address => mapping(address => uint256)) public tokens;\n    mapping(uint256 => _Order) public orders;\n    uint256 public orderCount;\n    mapping(uint256 => bool) public orderCancelled;\n    mapping(uint256 => bool) public orderFilled;\n\n    // Events\n    event Deposit(address token, address user, uint256 amount, uint256 balance);\n    event Withdraw(address token, address user, uint256 amount, uint256 balance);\n    event Order(\n        uint256 id,\n        address user,\n        address tokenGet,\n        uint256 amountGet,\n        address tokenGive,\n        uint256 amountGive,\n        uint256 timestamp\n    );\n    event Cancel(\n        uint256 id,\n        address user,\n        address tokenGet,\n        uint256 amountGet,\n        address tokenGive,\n        uint256 amountGive,\n        uint256 timestamp\n    );\n    event Trade(\n        uint256 id,\n        address user,\n        address tokenGet,\n        uint256 amountGet,\n        address tokenGive,\n        uint256 amountGive,\n        address userFill,\n        uint256 timestamp\n    );\n\n    // Structs\n    struct _Order {\n        uint256 id;\n        address user;\n        address tokenGet;\n        uint256 amountGet;\n        address tokenGive;\n        uint256 amountGive;\n        uint256 timestamp;\n    }\n\n    constructor (address _feeAccount, uint256 _feePercent) public {\n        feeAccount = _feeAccount;\n        feePercent = _feePercent;\n    }\n\n    // Fallback: reverts if Ether is sent to this smart contract by mistake\n    function() external {\n        revert();\n    }\n\n    function depositEther() payable whenNotPaused public {\n        tokens[ETHER][msg.sender] = tokens[ETHER][msg.sender].add(msg.value);\n        emit Deposit(ETHER, msg.sender, msg.value, tokens[ETHER][msg.sender]);\n    }\n\n    function withdrawEther(uint _amount) whenNotPaused public {\n        require(tokens[ETHER][msg.sender] >= _amount);\n        tokens[ETHER][msg.sender] = tokens[ETHER][msg.sender].sub(_amount);\n        msg.sender.transfer(_amount);\n        emit Withdraw(ETHER, msg.sender, _amount, tokens[ETHER][msg.sender]);\n    }\n\n    function depositToken(address _token, uint _amount) whenNotPaused public {\n        require(_token != ETHER);\n        require(Token(_token).transferFrom(msg.sender, address(this), _amount));\n        tokens[_token][msg.sender] = tokens[_token][msg.sender].add(_amount);\n        emit Deposit(_token, msg.sender, _amount, tokens[_token][msg.sender]);\n    }\n\n    function withdrawToken(address _token, uint256 _amount) whenNotPaused public {\n        require(_token != ETHER);\n        require(tokens[_token][msg.sender] >= _amount);\n        tokens[_token][msg.sender] = tokens[_token][msg.sender].sub(_amount);\n        require(Token(_token).transfer(msg.sender, _amount));\n        emit Withdraw(_token, msg.sender, _amount, tokens[_token][msg.sender]);\n    }\n\n    function balanceOf(address _token, address _user) public view returns (uint256) {\n        return tokens[_token][_user];\n    }\n\n    function makeOrder(address _tokenGet, uint256 _amountGet, address _tokenGive, uint256 _amountGive) whenNotPaused public {\n        orderCount = orderCount.add(1);\n        orders[orderCount] = _Order(orderCount, msg.sender, _tokenGet, _amountGet, _tokenGive, _amountGive, now);\n        emit Order(orderCount, msg.sender, _tokenGet, _amountGet, _tokenGive, _amountGive, now);\n    }\n\n    function cancelOrder(uint256 _id) whenNotPaused public {\n        _Order storage _order = orders[_id];\n        require(address(_order.user) == msg.sender);\n        require(_order.id == _id); // The order must exist\n        orderCancelled[_id] = true;\n        emit Cancel(_order.id, msg.sender, _order.tokenGet, _order.amountGet, _order.tokenGive, _order.amountGive, now);\n    }\n\n    function fillOrder(uint256 _id) whenNotPaused public {\n        require(_id > 0 && _id <= orderCount);\n        require(!orderFilled[_id]);\n        require(!orderCancelled[_id]);\n        _Order storage _order = orders[_id];\n        _trade(_order.id, _order.user, _order.tokenGet, _order.amountGet, _order.tokenGive, _order.amountGive);\n        orderFilled[_order.id] = true;\n    }\n\n    function _trade(uint256 _orderId, address _user, address _tokenGet, uint256 _amountGet, address _tokenGive, uint256 _amountGive) whenNotPaused internal {\n        // Fee paid by the user that fills the order, a.k.a. msg.sender.\n        uint256 _feeAmount = _amountGet.mul(feePercent).div(100);\n\n        tokens[_tokenGet][msg.sender] = tokens[_tokenGet][msg.sender].sub(_amountGet.add(_feeAmount));\n        tokens[_tokenGet][_user] = tokens[_tokenGet][_user].add(_amountGet);\n        tokens[_tokenGet][feeAccount] = tokens[_tokenGet][feeAccount].add(_feeAmount);\n        tokens[_tokenGive][_user] = tokens[_tokenGive][_user].sub(_amountGive);\n        tokens[_tokenGive][msg.sender] = tokens[_tokenGive][msg.sender].add(_amountGive);\n\n        emit Trade(_orderId, _user, _tokenGet, _amountGet, _tokenGive, _amountGive, msg.sender, now);\n    }\n}\n",
  "sourcePath": "/home/eric/pdx/src/contracts/Exchange.sol",
  "compiler": {
    "name": "solc",
    "version": "0.5.0+commit.1d4f565a.Emscripten.clang"
  },
  "schemaVersion": "3.0.2",
  "updatedAt": "2019-10-23T02:29:38.344Z",
  "devdoc": {
    "methods": {
      "pause()": {
        "details": "called by the owner to pause, triggers stopped state"
      },
      "paused()": {
        "return": "true if the contract is paused, false otherwise."
      },
      "unpause()": {
        "details": "called by the owner to unpause, returns to normal state"
      }
    }
  },
  "userdoc": {
    "methods": {}
  }
}